{
  "_format": "hh-sol-artifact-1",
  "contractName": "Pausable",
  "sourceName": "contracts/Pasuable.sol",
  "abi": [
    {
      "anonymous": false,
      "inputs": [
        {
          "indexed": true,
          "internalType": "address",
          "name": "previousOwner",
          "type": "address"
        },
        {
          "indexed": true,
          "internalType": "address",
          "name": "newOwner",
          "type": "address"
        }
      ],
      "name": "OwnershipTransferred",
      "type": "event"
    },
    {
      "anonymous": false,
      "inputs": [
        {
          "indexed": false,
          "internalType": "address",
          "name": "account",
          "type": "address"
        }
      ],
      "name": "Paused",
      "type": "event"
    },
    {
      "anonymous": false,
      "inputs": [
        {
          "indexed": false,
          "internalType": "address",
          "name": "account",
          "type": "address"
        }
      ],
      "name": "Unpaused",
      "type": "event"
    },
    {
      "inputs": [],
      "name": "_pause",
      "outputs": [],
      "stateMutability": "nonpayable",
      "type": "function"
    },
    {
      "inputs": [],
      "name": "_unpause",
      "outputs": [],
      "stateMutability": "nonpayable",
      "type": "function"
    },
    {
      "inputs": [],
      "name": "owner",
      "outputs": [
        {
          "internalType": "address",
          "name": "",
          "type": "address"
        }
      ],
      "stateMutability": "view",
      "type": "function"
    },
    {
      "inputs": [],
      "name": "paused",
      "outputs": [
        {
          "internalType": "bool",
          "name": "",
          "type": "bool"
        }
      ],
      "stateMutability": "view",
      "type": "function"
    },
    {
      "inputs": [],
      "name": "renounceOwnership",
      "outputs": [],
      "stateMutability": "nonpayable",
      "type": "function"
    },
    {
      "inputs": [
        {
          "internalType": "address",
          "name": "newOwner",
          "type": "address"
        }
      ],
      "name": "transferOwnership",
      "outputs": [],
      "stateMutability": "nonpayable",
      "type": "function"
    }
  ],
  "bytecode": "0x608060405260008060146101000a81548160ff02191690831515021790555034801561002a57600080fd5b5061092d8061003a6000396000f3fe608060405234801561001057600080fd5b50600436106100625760003560e01c8063320b2ad9146100675780635c975abb14610071578063715018a61461008f5780638da5cb5b14610099578063f2fde38b146100b7578063fc8234cb146100d3575b600080fd5b61006f6100dd565b005b6100796101fc565b6040516100869190610727565b60405180910390f35b610097610212565b005b6100a161029a565b6040516100ae919061070c565b60405180910390f35b6100d160048036038101906100cc9190610635565b6102c3565b005b6100db6103bb565b005b6100e56101fc565b15610125576040517f08c379a000000000000000000000000000000000000000000000000000000000815260040161011c90610782565b60405180910390fd5b61012d6104d8565b73ffffffffffffffffffffffffffffffffffffffff1661014b61029a565b73ffffffffffffffffffffffffffffffffffffffff16146101a1576040517f08c379a0000000000000000000000000000000000000000000000000000000008152600401610198906107a2565b60405180910390fd5b6001600060146101000a81548160ff0219169083151502179055507f62e78cea01bee320cd4e420270b5ea74000d11b0c9f74754ebdbfc544b05a2586101e56104d8565b6040516101f2919061070c565b60405180910390a1565b60008060149054906101000a900460ff16905090565b61021a6104d8565b73ffffffffffffffffffffffffffffffffffffffff1661023861029a565b73ffffffffffffffffffffffffffffffffffffffff161461028e576040517f08c379a0000000000000000000000000000000000000000000000000000000008152600401610285906107a2565b60405180910390fd5b61029860006104e0565b565b60008060009054906101000a900473ffffffffffffffffffffffffffffffffffffffff16905090565b6102cb6104d8565b73ffffffffffffffffffffffffffffffffffffffff166102e961029a565b73ffffffffffffffffffffffffffffffffffffffff161461033f576040517f08c379a0000000000000000000000000000000000000000000000000000000008152600401610336906107a2565b60405180910390fd5b600073ffffffffffffffffffffffffffffffffffffffff168173ffffffffffffffffffffffffffffffffffffffff1614156103af576040517f08c379a00000000000000000000000000000000000000000000000000000000081526004016103a690610762565b60405180910390fd5b6103b8816104e0565b50565b6103c36101fc565b610402576040517f08c379a00000000000000000000000000000000000000000000000000000000081526004016103f990610742565b60405180910390fd5b61040a6104d8565b73ffffffffffffffffffffffffffffffffffffffff1661042861029a565b73ffffffffffffffffffffffffffffffffffffffff161461047e576040517f08c379a0000000000000000000000000000000000000000000000000000000008152600401610475906107a2565b60405180910390fd5b60008060146101000a81548160ff0219169083151502179055507f5db9ee0a495bf2e6ff9c91a7834c1ba4fdd244a5e8aa4e537bd38aeae4b073aa6104c16104d8565b6040516104ce919061070c565b60405180910390a1565b600033905090565b6104e86104d8565b73ffffffffffffffffffffffffffffffffffffffff1661050661029a565b73ffffffffffffffffffffffffffffffffffffffff161461055c576040517f08c379a0000000000000000000000000000000000000000000000000000000008152600401610553906107a2565b60405180910390fd5b60008060009054906101000a900473ffffffffffffffffffffffffffffffffffffffff169050816000806101000a81548173ffffffffffffffffffffffffffffffffffffffff021916908373ffffffffffffffffffffffffffffffffffffffff1602179055508173ffffffffffffffffffffffffffffffffffffffff168173ffffffffffffffffffffffffffffffffffffffff167f8be0079c531659141344cd1fd0a4f28419497f9722a3daafe3b4186f6b6457e060405160405180910390a35050565b60008135905061062f816108e0565b92915050565b60006020828403121561064b5761064a610811565b5b600061065984828501610620565b91505092915050565b61066b816107d3565b82525050565b61067a816107e5565b82525050565b600061068d6014836107c2565b915061069882610816565b602082019050919050565b60006106b06026836107c2565b91506106bb8261083f565b604082019050919050565b60006106d36010836107c2565b91506106de8261088e565b602082019050919050565b60006106f66020836107c2565b9150610701826108b7565b602082019050919050565b60006020820190506107216000830184610662565b92915050565b600060208201905061073c6000830184610671565b92915050565b6000602082019050818103600083015261075b81610680565b9050919050565b6000602082019050818103600083015261077b816106a3565b9050919050565b6000602082019050818103600083015261079b816106c6565b9050919050565b600060208201905081810360008301526107bb816106e9565b9050919050565b600082825260208201905092915050565b60006107de826107f1565b9050919050565b60008115159050919050565b600073ffffffffffffffffffffffffffffffffffffffff82169050919050565b600080fd5b7f5061757361626c653a206e6f7420706175736564000000000000000000000000600082015250565b7f4f776e61626c653a206e6577206f776e657220697320746865207a65726f206160008201527f6464726573730000000000000000000000000000000000000000000000000000602082015250565b7f5061757361626c653a2070617573656400000000000000000000000000000000600082015250565b7f4f776e61626c653a2063616c6c6572206973206e6f7420746865206f776e6572600082015250565b6108e9816107d3565b81146108f457600080fd5b5056fea2646970667358221220895e29f9f475e5f307cbaaa38de20d8302e86dac315f9a2b43d3e50f7b02af0564736f6c63430008070033",
  "linkReferences": {},
  "deployedLinkReferences": {}
}